:1000000010E0A0E6B0E0E8E9F5E003C0C89531965D
:100010000D92A236B107D1F720E0A2E6B0E001C010
:100020001D92A436B207E1F7CF93DF93CDB7DEB7C9
:1000300081E390E02FEFE82FF92F2083E9D0FECF66
:10004000CF93DF93CDB7DEB72E970FB6F894DEBF10
:100050000FBECDBF82E390E0E82FF92F2081809181
:10006000600090916100382F82E390E0232BE82F0D
:10007000F92F208380E090E0A8ECB2E489839A8392
:10008000AB83BC8320E030E04AEF54E469817A819D
:100090008B819C81EED1B92FA82F972F862F8D832E
:1000A0009E83AF83B88720E030E040E85FE36D8156
:1000B0007E818F8198855BD181152CF481E090E061
:1000C0009A87898744C020E03FEF4FE757E46D816E
:1000D0007E818F819885C9D1813074F120E030E034
:1000E00040E251E469817A818B819C81C2D1B92F30
:1000F000A82F972F862F682F792F8A2F9B2F3BD1E0
:10010000B92FA82F972F862F9A87898710C088EC40
:1001100090E09C878B878B859C850197F1F79C8766
:100120008B87000089859A8501979A8789878985B9
:100130009A85009761F716C06D817E818F819885C1
:100140001AD1B92FA82F972F862F9A87898789854B
:100150009A859E878D878D859E850197F1F79E876D
:100160008D87000082E390E0E82FF92F30818091A5
:10017000600090916100282F209582E390E0232376
:10018000E82FF92F20839091620081E08927811563
:10019000F1F08091600090916100880F991F909319
:1001A00061008093600080916000909161008138CF
:1001B000910568F080916000909161009695879517
:1001C000909361008093600081E080936200809151
:1001D0006200811599F08091600090916100969580
:1001E000879590936100809360008091600090916A
:1001F00061008230910510F41092620000002E968A
:100200000FB6F894DEBF0FBECDBFDF91CF9108953A
:10021000CF93DF93CDB7DEB72E970FB6F894DEBF3E
:100220000FBECDBF82E390E0E82FF92F8081482FE9
:1002300080916300282F30E081E090E002C0880FB9
:10024000991F2A95E2F7242F282782E390E0E82FD0
:10025000F92F2083809163008F5F8093630080E09B
:1002600090E0A8ECB2E489839A83AB83BC8320E05E
:1002700030E04AEF54E469817A818B819C81F9D026
:10028000B92FA82F972F862F8D839E83AF83B88792
:1002900020E030E040E85FE36D817E818F819885CA
:1002A00066D081152CF481E090E09A87898744C05C
:1002B00020E03FEF4FE757E46D817E818F81988585
:1002C000D4D0813074F120E030E040E251E4698123
:1002D0007A818B819C81CDD0B92FA82F972F862F23
:1002E000682F792F8A2F9B2F46D0B92FA82F972FB1
:1002F000862F9A87898710C088EC90E09C878B872F
:100300008B859C850197F1F79C878B8700008985F9
:100310009A8501979A87898789859A85009761F7D9
:1003200016C06D817E818F81988525D0B92FA82F29
:10033000972F862F9A87898789859A859E878D87AB
:100340008D859E850197F1F79E878D8700008091AE
:100350006300883011F41092630000002E960FB6EF
:10036000F894DEBF0FBECDBFDF91CF9108952FD09F
:1003700008F481E0089557D088F09F5790F0B92F86
:100380009927B751A0F0D1F0660F771F881F991FEA
:100390001AF0BA95C9F712C0B13081F05ED0B1E061
:1003A00008955BC0672F782F8827B85F39F0B93F71
:1003B000CCF3869577956795B395D9F73EF49095EC
:1003C0008095709561957F4F8F4F9F4F0895990F3E
:1003D0000008550FAA0BE0E8FEEF16161706E8070F
:1003E000F907C0F012161306E407F50798F0621B30
:1003F000730B840B950B39F40A2661F0232B242B05
:10040000252B21F408950A2609F4A140A6958FEF23
:10041000811D811D089557FD9058440F551F59F0B7
:100420005F3F71F04795880F97FB991F61F09F3FE1
:1004300079F087950895121613061406551FF2CF0A
:100440004695F1DF08C0161617061806991FF1CF5A
:1004500086957105610508940895E894BB27662781
:100460007727862F972F97F90895B1DF08F48FEF3C
:1004700008950AD080C071D028F076D018F0952366
:1004800009F062C067C0EACFC6DFA8F39923D9F3A9
:100490005523C9F3950F50E0551FAA27EE27FF27D4
:1004A000BB2700240894679520F4E20FF31FB41FC4
:1004B0000A1E220F331F441FAA1F6695A9F77795BE
:1004C00030F4F30FB41F0A1E121E08F46395330FA5
:1004D000441FAA1F221F769599F7879520F4B40F21
:1004E0000A1E121E631F440FAA1F221F331F869568
:1004F000A9F7862F712D602D11249F5750408AF047
:10050000E1F088234AF0EE0FFF1FBB1F661F771F25
:10051000881F91505040A9F79E3F510570F014C0BC
:100520009DCF5F3FECF3983EDCF38695779567951A
:10053000B795F795E7959F5FC1F7FE2B880F911D43
:100540009695879597F9089597F99F6780E870E0E9
:1005500060E008959FEF80EC089500240A94161639
:10056000170618060906089500240A9412161306A1
:10057000140605060895092E0394000C11F488232F
:1005800052F0BB0F40F4BF2B11F460FF04C06F5F4B
:080590007F4F8F4F9F4F08952C
:02059800010060
:00000001FF
